{
  "_format": "hh-sol-artifact-1",
  "contractName": "newPayment",
  "sourceName": "contracts/newPayment.sol",
  "abi": [
    {
      "inputs": [],
      "stateMutability": "nonpayable",
      "type": "constructor"
    },
    {
      "anonymous": false,
      "inputs": [],
      "name": "Aborted",
      "type": "event"
    },
    {
      "anonymous": false,
      "inputs": [],
      "name": "PurchaseConfirmed",
      "type": "event"
    },
    {
      "inputs": [],
      "name": "abort",
      "outputs": [],
      "stateMutability": "payable",
      "type": "function"
    },
    {
      "inputs": [],
      "name": "buyer",
      "outputs": [
        {
          "internalType": "address",
          "name": "",
          "type": "address"
        }
      ],
      "stateMutability": "view",
      "type": "function"
    },
    {
      "inputs": [],
      "name": "count",
      "outputs": [],
      "stateMutability": "nonpayable",
      "type": "function"
    },
    {
      "inputs": [
        {
          "internalType": "uint256",
          "name": "amount",
          "type": "uint256"
        },
        {
          "internalType": "uint256",
          "name": "nonce",
          "type": "uint256"
        },
        {
          "internalType": "bytes",
          "name": "_signature",
          "type": "bytes"
        }
      ],
      "name": "deposit",
      "outputs": [],
      "stateMutability": "payable",
      "type": "function"
    },
    {
      "inputs": [
        {
          "internalType": "uint256",
          "name": "amount",
          "type": "uint256"
        },
        {
          "internalType": "uint256",
          "name": "nonce",
          "type": "uint256"
        },
        {
          "internalType": "bytes",
          "name": "_signature",
          "type": "bytes"
        }
      ],
      "name": "isMessageVaild",
      "outputs": [
        {
          "internalType": "bool",
          "name": "",
          "type": "bool"
        }
      ],
      "stateMutability": "nonpayable",
      "type": "function"
    },
    {
      "inputs": [
        {
          "internalType": "uint256",
          "name": "productPrice",
          "type": "uint256"
        }
      ],
      "name": "itemcost",
      "outputs": [],
      "stateMutability": "payable",
      "type": "function"
    },
    {
      "inputs": [],
      "name": "price",
      "outputs": [
        {
          "internalType": "uint256",
          "name": "",
          "type": "uint256"
        }
      ],
      "stateMutability": "view",
      "type": "function"
    },
    {
      "inputs": [],
      "name": "seller",
      "outputs": [
        {
          "internalType": "address",
          "name": "",
          "type": "address"
        }
      ],
      "stateMutability": "view",
      "type": "function"
    },
    {
      "inputs": [],
      "name": "state",
      "outputs": [
        {
          "internalType": "enum newPayment.State",
          "name": "",
          "type": "uint8"
        }
      ],
      "stateMutability": "view",
      "type": "function"
    },
    {
      "inputs": [],
      "name": "totalCount",
      "outputs": [
        {
          "internalType": "uint256",
          "name": "",
          "type": "uint256"
        }
      ],
      "stateMutability": "view",
      "type": "function"
    }
  ],
  "bytecode": "0x608060405273c98e9c69119eb0b764b0d5dcbc1532de8bfc2d4f600360006101000a81548173ffffffffffffffffffffffffffffffffffffffff021916908373ffffffffffffffffffffffffffffffffffffffff16021790555034801561006557600080fd5b5060006001819055506117f88061007d6000396000f3fe6080604052600436106100915760003560e01c80637150d8ae116100595780637150d8ae1461014a57806382e7ca3414610175578063a035b1fe14610191578063aa0b7db7146101bc578063c19d93fb146101d857610091565b806306661abd1461009657806308551a53146100ad57806334eafb11146100d857806335a063b4146101035780634227d40d1461010d575b600080fd5b3480156100a257600080fd5b506100ab610203565b005b3480156100b957600080fd5b506100c26102ae565b6040516100cf91906110a7565b60405180910390f35b3480156100e457600080fd5b506100ed6102d4565b6040516100fa919061125d565b60405180910390f35b61010b6102da565b005b34801561011957600080fd5b50610134600480360381019061012f9190610de0565b610518565b60405161014191906110c2565b60405180910390f35b34801561015657600080fd5b5061015f610608565b60405161016c91906110a7565b60405180910390f35b61018f600480360381019061018a9190610db7565b61062e565b005b34801561019d57600080fd5b506101a6610660565b6040516101b3919061125d565b60405180910390f35b6101d660048036038101906101d19190610de0565b610666565b005b3480156101e457600080fd5b506101ed610820565b6040516101fa9190611122565b60405180910390f35b600360009054906101000a900473ffffffffffffffffffffffffffffffffffffffff1673ffffffffffffffffffffffffffffffffffffffff163373ffffffffffffffffffffffffffffffffffffffff1614610293576040517f08c379a000000000000000000000000000000000000000000000000000000000815260040161028a906111fd565b60405180910390fd5b60018060008282546102a591906112ea565b92505081905550565b600360009054906101000a900473ffffffffffffffffffffffffffffffffffffffff1681565b60015481565b600460009054906101000a900473ffffffffffffffffffffffffffffffffffffffff1673ffffffffffffffffffffffffffffffffffffffff163373ffffffffffffffffffffffffffffffffffffffff161461036a576040517f08c379a0000000000000000000000000000000000000000000000000000000008152600401610361906111bd565b60405180910390fd5b60008060028111156103a5577f4e487b7100000000000000000000000000000000000000000000000000000000600052602160045260246000fd5b600460149054906101000a900460ff1660028111156103ed577f4e487b7100000000000000000000000000000000000000000000000000000000600052602160045260246000fd5b1461042d576040517f08c379a00000000000000000000000000000000000000000000000000000000081526004016104249061123d565b60405180910390fd5b7f72c874aeff0b183a56e2b79c71b46e1aed4dee5e09862134b8821ba2fddbf8bf60405160405180910390a16002600460146101000a81548160ff021916908360028111156104a5577f4e487b7100000000000000000000000000000000000000000000000000000000600052602160045260246000fd5b0217905550600460009054906101000a900473ffffffffffffffffffffffffffffffffffffffff1673ffffffffffffffffffffffffffffffffffffffff166108fc6002549081150290604051600060405180830381858888f19350505050158015610514573d6000803e3d6000fd5b5050565b600080600084815260200190815260200160002060009054906101000a900460ff161561054457600080fd5b600160008085815260200190815260200160002060006101000a81548160ff02191690831515021790555060008484306040516020016105869392919061106a565b60405160208183030381529060405280519060200120905060006105a982610833565b905060006105b78286610863565b90508073ffffffffffffffffffffffffffffffffffffffff163373ffffffffffffffffffffffffffffffffffffffff1614156105f95760019350505050610601565b600093505050505b9392505050565b600460009054906101000a900473ffffffffffffffffffffffffffffffffffffffff1681565b633b9aca008161063e9190611340565b600281905550600180600082825461065691906112ea565b9250508190555050565b60025481565b60025434146106aa576040517f08c379a00000000000000000000000000000000000000000000000000000000081526004016106a19061117d565b60405180910390fd5b6106b5838383610518565b6106f4576040517f08c379a00000000000000000000000000000000000000000000000000000000081526004016106eb9061119d565b60405180910390fd5b7fd5d55c8a68912e9a110618df8d5e2e83b8d83211c57a8ddd1203df92885dc88160405160405180910390a133600460006101000a81548173ffffffffffffffffffffffffffffffffffffffff021916908373ffffffffffffffffffffffffffffffffffffffff1602179055506000600460146101000a81548160ff021916908360028111156107ad577f4e487b7100000000000000000000000000000000000000000000000000000000600052602160045260246000fd5b0217905550600360009054906101000a900473ffffffffffffffffffffffffffffffffffffffff1673ffffffffffffffffffffffffffffffffffffffff166108fc479081150290604051600060405180830381858888f1935050505015801561081a573d6000803e3d6000fd5b50505050565b600460149054906101000a900460ff1681565b6000816040516020016108469190611044565b604051602081830303815290604052805190602001209050919050565b6000806000610872858561088a565b9150915061087f816108dc565b819250505092915050565b6000806041835114156108cc5760008060006020860151925060408601519150606086015160001a90506108c087828585610c2d565b945094505050506108d5565b60006002915091505b9250929050565b60006004811115610916577f4e487b7100000000000000000000000000000000000000000000000000000000600052602160045260246000fd5b81600481111561094f577f4e487b7100000000000000000000000000000000000000000000000000000000600052602160045260246000fd5b141561095a57610c2a565b60016004811115610994577f4e487b7100000000000000000000000000000000000000000000000000000000600052602160045260246000fd5b8160048111156109cd577f4e487b7100000000000000000000000000000000000000000000000000000000600052602160045260246000fd5b1415610a0e576040517f08c379a0000000000000000000000000000000000000000000000000000000008152600401610a059061113d565b60405180910390fd5b60026004811115610a48577f4e487b7100000000000000000000000000000000000000000000000000000000600052602160045260246000fd5b816004811115610a81577f4e487b7100000000000000000000000000000000000000000000000000000000600052602160045260246000fd5b1415610ac2576040517f08c379a0000000000000000000000000000000000000000000000000000000008152600401610ab99061115d565b60405180910390fd5b60036004811115610afc577f4e487b7100000000000000000000000000000000000000000000000000000000600052602160045260246000fd5b816004811115610b35577f4e487b7100000000000000000000000000000000000000000000000000000000600052602160045260246000fd5b1415610b76576040517f08c379a0000000000000000000000000000000000000000000000000000000008152600401610b6d906111dd565b60405180910390fd5b600480811115610baf577f4e487b7100000000000000000000000000000000000000000000000000000000600052602160045260246000fd5b816004811115610be8577f4e487b7100000000000000000000000000000000000000000000000000000000600052602160045260246000fd5b1415610c29576040517f08c379a0000000000000000000000000000000000000000000000000000000008152600401610c209061121d565b60405180910390fd5b5b50565b6000807f7fffffffffffffffffffffffffffffff5d576e7357a4501ddfe92f46681b20a08360001c1115610c68576000600391509150610d31565b601b8560ff1614158015610c805750601c8560ff1614155b15610c92576000600491509150610d31565b600060018787878760405160008152602001604052604051610cb794939291906110dd565b6020604051602081039080840390855afa158015610cd9573d6000803e3d6000fd5b505050602060405103519050600073ffffffffffffffffffffffffffffffffffffffff168173ffffffffffffffffffffffffffffffffffffffff161415610d2857600060019250925050610d31565b80600092509250505b94509492505050565b6000610d4d610d488461129d565b611278565b905082815260208101848484011115610d6557600080fd5b610d70848285611442565b509392505050565b600082601f830112610d8957600080fd5b8135610d99848260208601610d3a565b91505092915050565b600081359050610db1816117ab565b92915050565b600060208284031215610dc957600080fd5b6000610dd784828501610da2565b91505092915050565b600080600060608486031215610df557600080fd5b6000610e0386828701610da2565b9350506020610e1486828701610da2565b925050604084013567ffffffffffffffff811115610e3157600080fd5b610e3d86828701610d78565b9150509250925092565b610e508161139a565b82525050565b610e5f816113ac565b82525050565b610e6e816113b8565b82525050565b610e85610e80826113b8565b611494565b82525050565b610e9c610e978261140c565b611482565b82525050565b610eab81611430565b82525050565b6000610ebe6018836112ce565b9150610ec982611565565b602082019050919050565b6000610ee1601f836112ce565b9150610eec8261158e565b602082019050919050565b6000610f04601c836112df565b9150610f0f826115b7565b601c82019050919050565b6000610f276027836112ce565b9150610f32826115e0565b604082019050919050565b6000610f4a6019836112ce565b9150610f558261162f565b602082019050919050565b6000610f6d601c836112ce565b9150610f7882611658565b602082019050919050565b6000610f906022836112ce565b9150610f9b82611681565b604082019050919050565b6000610fb36019836112ce565b9150610fbe826116d0565b602082019050919050565b6000610fd66022836112ce565b9150610fe1826116f9565b604082019050919050565b6000610ff9602a836112ce565b915061100482611748565b604082019050919050565b611018816113f5565b82525050565b61102f61102a826113f5565b6114b0565b82525050565b61103e816113ff565b82525050565b600061104f82610ef7565b915061105b8284610e74565b60208201915081905092915050565b6000611076828661101e565b602082019150611086828561101e565b6020820191506110968284610e8b565b601482019150819050949350505050565b60006020820190506110bc6000830184610e47565b92915050565b60006020820190506110d76000830184610e56565b92915050565b60006080820190506110f26000830187610e65565b6110ff6020830186611035565b61110c6040830185610e65565b6111196060830184610e65565b95945050505050565b60006020820190506111376000830184610ea2565b92915050565b6000602082019050818103600083015261115681610eb1565b9050919050565b6000602082019050818103600083015261117681610ed4565b9050919050565b6000602082019050818103600083015261119681610f1a565b9050919050565b600060208201905081810360008301526111b681610f3d565b9050919050565b600060208201905081810360008301526111d681610f60565b9050919050565b600060208201905081810360008301526111f681610f83565b9050919050565b6000602082019050818103600083015261121681610fa6565b9050919050565b6000602082019050818103600083015261123681610fc9565b9050919050565b6000602082019050818103600083015261125681610fec565b9050919050565b6000602082019050611272600083018461100f565b92915050565b6000611282611293565b905061128e8282611451565b919050565b6000604051905090565b600067ffffffffffffffff8211156112b8576112b7611518565b5b6112c182611547565b9050602081019050919050565b600082825260208201905092915050565b600081905092915050565b60006112f5826113f5565b9150611300836113f5565b9250827fffffffffffffffffffffffffffffffffffffffffffffffffffffffffffffffff03821115611335576113346114ba565b5b828201905092915050565b600061134b826113f5565b9150611356836113f5565b9250817fffffffffffffffffffffffffffffffffffffffffffffffffffffffffffffffff048311821515161561138f5761138e6114ba565b5b828202905092915050565b60006113a5826113d5565b9050919050565b60008115159050919050565b6000819050919050565b60008190506113d082611797565b919050565b600073ffffffffffffffffffffffffffffffffffffffff82169050919050565b6000819050919050565b600060ff82169050919050565b60006114178261141e565b9050919050565b6000611429826113d5565b9050919050565b600061143b826113c2565b9050919050565b82818337600083830152505050565b61145a82611547565b810181811067ffffffffffffffff8211171561147957611478611518565b5b80604052505050565b600061148d8261149e565b9050919050565b6000819050919050565b60006114a982611558565b9050919050565b6000819050919050565b7f4e487b7100000000000000000000000000000000000000000000000000000000600052601160045260246000fd5b7f4e487b7100000000000000000000000000000000000000000000000000000000600052602160045260246000fd5b7f4e487b7100000000000000000000000000000000000000000000000000000000600052604160045260246000fd5b6000601f19601f8301169050919050565b60008160601b9050919050565b7f45434453413a20696e76616c6964207369676e61747572650000000000000000600082015250565b7f45434453413a20696e76616c6964207369676e6174757265206c656e67746800600082015250565b7f19457468657265756d205369676e6564204d6573736167653a0a333200000000600082015250565b7f506c6561736520706179206163636f7264696e6720746f20746865206974656d60008201527f2070726963652e00000000000000000000000000000000000000000000000000602082015250565b7f4d757374206e65656420796f7572207369676e61747572652e00000000000000600082015250565b7f4f6e6c7920616c6c6f772062757965727320746f206163636573732e00000000600082015250565b7f45434453413a20696e76616c6964207369676e6174757265202773272076616c60008201527f7565000000000000000000000000000000000000000000000000000000000000602082015250565b7f416c6c6f772073656c6c657220616363657373206f6e6c792e00000000000000600082015250565b7f45434453413a20696e76616c6964207369676e6174757265202776272076616c60008201527f7565000000000000000000000000000000000000000000000000000000000000602082015250565b7f54686520737461747573206f6620746865206f72646572206973206e6f74206160008201527f6374696f6e61626c652e00000000000000000000000000000000000000000000602082015250565b600381106117a8576117a76114e9565b5b50565b6117b4816113f5565b81146117bf57600080fd5b5056fea2646970667358221220f5095c2e7cd588bea2bc1ba204ba3675c26531b4184d23597ed81f22408f50f564736f6c63430008040033",
  "linkReferences": {},
  "deployedLinkReferences": {}
}