{
  "_format": "hh-sol-artifact-1",
  "contractName": "newPayment",
  "sourceName": "contracts/newPayment.sol",
  "abi": [
    {
      "inputs": [],
      "stateMutability": "nonpayable",
      "type": "constructor"
    },
    {
      "anonymous": false,
      "inputs": [],
      "name": "Aborted",
      "type": "event"
    },
    {
      "anonymous": false,
      "inputs": [],
      "name": "ItemReceived",
      "type": "event"
    },
    {
      "anonymous": false,
      "inputs": [],
      "name": "PurchaseConfirmed",
      "type": "event"
    },
    {
      "inputs": [],
      "name": "abort",
      "outputs": [],
      "stateMutability": "payable",
      "type": "function"
    },
    {
      "inputs": [],
      "name": "buyer",
      "outputs": [
        {
          "internalType": "address",
          "name": "",
          "type": "address"
        }
      ],
      "stateMutability": "view",
      "type": "function"
    },
    {
      "inputs": [],
      "name": "count",
      "outputs": [],
      "stateMutability": "nonpayable",
      "type": "function"
    },
    {
      "inputs": [
        {
          "internalType": "uint256",
          "name": "amount",
          "type": "uint256"
        },
        {
          "internalType": "uint256",
          "name": "nonce",
          "type": "uint256"
        },
        {
          "internalType": "bytes",
          "name": "_signature",
          "type": "bytes"
        }
      ],
      "name": "deposit",
      "outputs": [],
      "stateMutability": "payable",
      "type": "function"
    },
    {
      "inputs": [
        {
          "internalType": "uint256",
          "name": "amount",
          "type": "uint256"
        },
        {
          "internalType": "uint256",
          "name": "nonce",
          "type": "uint256"
        },
        {
          "internalType": "bytes",
          "name": "_signature",
          "type": "bytes"
        }
      ],
      "name": "isMessageVaild",
      "outputs": [
        {
          "internalType": "bool",
          "name": "",
          "type": "bool"
        }
      ],
      "stateMutability": "nonpayable",
      "type": "function"
    },
    {
      "inputs": [
        {
          "internalType": "uint256",
          "name": "productPrice",
          "type": "uint256"
        }
      ],
      "name": "itemcost",
      "outputs": [],
      "stateMutability": "payable",
      "type": "function"
    },
    {
      "inputs": [],
      "name": "price",
      "outputs": [
        {
          "internalType": "uint256",
          "name": "",
          "type": "uint256"
        }
      ],
      "stateMutability": "view",
      "type": "function"
    },
    {
      "inputs": [],
      "name": "seller",
      "outputs": [
        {
          "internalType": "address",
          "name": "",
          "type": "address"
        }
      ],
      "stateMutability": "view",
      "type": "function"
    },
    {
      "inputs": [],
      "name": "shopNFT",
      "outputs": [
        {
          "internalType": "address",
          "name": "",
          "type": "address"
        }
      ],
      "stateMutability": "view",
      "type": "function"
    },
    {
      "inputs": [],
      "name": "state",
      "outputs": [
        {
          "internalType": "enum newPayment.State",
          "name": "",
          "type": "uint8"
        }
      ],
      "stateMutability": "view",
      "type": "function"
    },
    {
      "inputs": [],
      "name": "totalCount",
      "outputs": [
        {
          "internalType": "uint256",
          "name": "",
          "type": "uint256"
        }
      ],
      "stateMutability": "view",
      "type": "function"
    },
    {
      "inputs": [
        {
          "internalType": "address",
          "name": "_owner",
          "type": "address"
        }
      ],
      "name": "walletOfOwner",
      "outputs": [
        {
          "internalType": "uint256[]",
          "name": "",
          "type": "uint256[]"
        }
      ],
      "stateMutability": "view",
      "type": "function"
    }
  ],
  "bytecode": "0x60806040527322579ee9f78ef9ed8cae46f068370c106b4192b96000806101000a81548173ffffffffffffffffffffffffffffffffffffffff021916908373ffffffffffffffffffffffffffffffffffffffff16021790555073c98e9c69119eb0b764b0d5dcbc1532de8bfc2d4f600460006101000a81548173ffffffffffffffffffffffffffffffffffffffff021916908373ffffffffffffffffffffffffffffffffffffffff1602179055503480156100b957600080fd5b506000600281905550611ba1806100d16000396000f3fe6080604052600436106100a75760003560e01c80637150d8ae116100645780637150d8ae1461019d57806375d23846146101c857806382e7ca34146101f3578063a035b1fe1461020f578063aa0b7db71461023a578063c19d93fb14610256576100a7565b806306661abd146100ac57806308551a53146100c357806334eafb11146100ee57806335a063b4146101195780634227d40d14610123578063438b630014610160575b600080fd5b3480156100b857600080fd5b506100c1610281565b005b3480156100cf57600080fd5b506100d861032d565b6040516100e591906113b2565b60405180910390f35b3480156100fa57600080fd5b50610103610353565b604051610110919061158a565b60405180910390f35b610121610359565b005b34801561012f57600080fd5b5061014a60048036038101906101459190611066565b610597565b60405161015791906113ef565b60405180910390f35b34801561016c57600080fd5b5061018760048036038101906101829190610fd3565b610688565b60405161019491906113cd565b60405180910390f35b3480156101a957600080fd5b506101b261073f565b6040516101bf91906113b2565b60405180910390f35b3480156101d457600080fd5b506101dd610765565b6040516101ea91906113b2565b60405180910390f35b61020d6004803603810190610208919061103d565b610789565b005b34801561021b57600080fd5b506102246107bc565b604051610231919061158a565b60405180910390f35b610254600480360381019061024f9190611066565b6107c2565b005b34801561026257600080fd5b5061026b61097c565b604051610278919061144f565b60405180910390f35b600460009054906101000a900473ffffffffffffffffffffffffffffffffffffffff1673ffffffffffffffffffffffffffffffffffffffff163373ffffffffffffffffffffffffffffffffffffffff1614610311576040517f08c379a00000000000000000000000000000000000000000000000000000000081526004016103089061152a565b60405180910390fd5b600160026000828254610324919061167c565b92505081905550565b600460009054906101000a900473ffffffffffffffffffffffffffffffffffffffff1681565b60025481565b600560009054906101000a900473ffffffffffffffffffffffffffffffffffffffff1673ffffffffffffffffffffffffffffffffffffffff163373ffffffffffffffffffffffffffffffffffffffff16146103e9576040517f08c379a00000000000000000000000000000000000000000000000000000000081526004016103e0906114ea565b60405180910390fd5b6000806002811115610424577f4e487b7100000000000000000000000000000000000000000000000000000000600052602160045260246000fd5b600560149054906101000a900460ff16600281111561046c577f4e487b7100000000000000000000000000000000000000000000000000000000600052602160045260246000fd5b146104ac576040517f08c379a00000000000000000000000000000000000000000000000000000000081526004016104a39061156a565b60405180910390fd5b7f72c874aeff0b183a56e2b79c71b46e1aed4dee5e09862134b8821ba2fddbf8bf60405160405180910390a16002600560146101000a81548160ff02191690836002811115610524577f4e487b7100000000000000000000000000000000000000000000000000000000600052602160045260246000fd5b0217905550600560009054906101000a900473ffffffffffffffffffffffffffffffffffffffff1673ffffffffffffffffffffffffffffffffffffffff166108fc6003549081150290604051600060405180830381858888f19350505050158015610593573d6000803e3d6000fd5b5050565b60006001600084815260200190815260200160002060009054906101000a900460ff16156105c457600080fd5b600180600085815260200190815260200160002060006101000a81548160ff021916908315150217905550600084843060405160200161060693929190611375565b60405160208183030381529060405280519060200120905060006106298261098f565b9050600061063782866109bf565b90508073ffffffffffffffffffffffffffffffffffffffff163373ffffffffffffffffffffffffffffffffffffffff1614156106795760019350505050610681565b600093505050505b9392505050565b606060008054906101000a900473ffffffffffffffffffffffffffffffffffffffff1673ffffffffffffffffffffffffffffffffffffffff1663438b6300836040518263ffffffff1660e01b81526004016106e391906113b2565b60006040518083038186803b1580156106fb57600080fd5b505afa15801561070f573d6000803e3d6000fd5b505050506040513d6000823e3d601f19601f820116820180604052508101906107389190610ffc565b9050919050565b600560009054906101000a900473ffffffffffffffffffffffffffffffffffffffff1681565b60008054906101000a900473ffffffffffffffffffffffffffffffffffffffff1681565b633b9aca008161079991906116d2565b6003819055506001600260008282546107b2919061167c565b9250508190555050565b60035481565b6003543414610806576040517f08c379a00000000000000000000000000000000000000000000000000000000081526004016107fd906114aa565b60405180910390fd5b610811838383610597565b610850576040517f08c379a0000000000000000000000000000000000000000000000000000000008152600401610847906114ca565b60405180910390fd5b7fd5d55c8a68912e9a110618df8d5e2e83b8d83211c57a8ddd1203df92885dc88160405160405180910390a133600560006101000a81548173ffffffffffffffffffffffffffffffffffffffff021916908373ffffffffffffffffffffffffffffffffffffffff1602179055506000600560146101000a81548160ff02191690836002811115610909577f4e487b7100000000000000000000000000000000000000000000000000000000600052602160045260246000fd5b0217905550600460009054906101000a900473ffffffffffffffffffffffffffffffffffffffff1673ffffffffffffffffffffffffffffffffffffffff166108fc479081150290604051600060405180830381858888f19350505050158015610976573d6000803e3d6000fd5b50505050565b600560149054906101000a900460ff1681565b6000816040516020016109a2919061134f565b604051602081830303815290604052805190602001209050919050565b60008060006109ce85856109e6565b915091506109db81610a38565b819250505092915050565b600080604183511415610a285760008060006020860151925060408601519150606086015160001a9050610a1c87828585610d89565b94509450505050610a31565b60006002915091505b9250929050565b60006004811115610a72577f4e487b7100000000000000000000000000000000000000000000000000000000600052602160045260246000fd5b816004811115610aab577f4e487b7100000000000000000000000000000000000000000000000000000000600052602160045260246000fd5b1415610ab657610d86565b60016004811115610af0577f4e487b7100000000000000000000000000000000000000000000000000000000600052602160045260246000fd5b816004811115610b29577f4e487b7100000000000000000000000000000000000000000000000000000000600052602160045260246000fd5b1415610b6a576040517f08c379a0000000000000000000000000000000000000000000000000000000008152600401610b619061146a565b60405180910390fd5b60026004811115610ba4577f4e487b7100000000000000000000000000000000000000000000000000000000600052602160045260246000fd5b816004811115610bdd577f4e487b7100000000000000000000000000000000000000000000000000000000600052602160045260246000fd5b1415610c1e576040517f08c379a0000000000000000000000000000000000000000000000000000000008152600401610c159061148a565b60405180910390fd5b60036004811115610c58577f4e487b7100000000000000000000000000000000000000000000000000000000600052602160045260246000fd5b816004811115610c91577f4e487b7100000000000000000000000000000000000000000000000000000000600052602160045260246000fd5b1415610cd2576040517f08c379a0000000000000000000000000000000000000000000000000000000008152600401610cc99061150a565b60405180910390fd5b600480811115610d0b577f4e487b7100000000000000000000000000000000000000000000000000000000600052602160045260246000fd5b816004811115610d44577f4e487b7100000000000000000000000000000000000000000000000000000000600052602160045260246000fd5b1415610d85576040517f08c379a0000000000000000000000000000000000000000000000000000000008152600401610d7c9061154a565b60405180910390fd5b5b50565b6000807f7fffffffffffffffffffffffffffffff5d576e7357a4501ddfe92f46681b20a08360001c1115610dc4576000600391509150610e8d565b601b8560ff1614158015610ddc5750601c8560ff1614155b15610dee576000600491509150610e8d565b600060018787878760405160008152602001604052604051610e13949392919061140a565b6020604051602081039080840390855afa158015610e35573d6000803e3d6000fd5b505050602060405103519050600073ffffffffffffffffffffffffffffffffffffffff168173ffffffffffffffffffffffffffffffffffffffff161415610e8457600060019250925050610e8d565b80600092509250505b94509492505050565b6000610ea9610ea4846115ca565b6115a5565b90508083825260208201905082856020860282011115610ec857600080fd5b60005b85811015610ef85781610ede8882610fbe565b845260208401935060208301925050600181019050610ecb565b5050509392505050565b6000610f15610f10846115f6565b6115a5565b905082815260208101848484011115610f2d57600080fd5b610f388482856117d4565b509392505050565b600081359050610f4f81611b3d565b92915050565b600082601f830112610f6657600080fd5b8151610f76848260208601610e96565b91505092915050565b600082601f830112610f9057600080fd5b8135610fa0848260208601610f02565b91505092915050565b600081359050610fb881611b54565b92915050565b600081519050610fcd81611b54565b92915050565b600060208284031215610fe557600080fd5b6000610ff384828501610f40565b91505092915050565b60006020828403121561100e57600080fd5b600082015167ffffffffffffffff81111561102857600080fd5b61103484828501610f55565b91505092915050565b60006020828403121561104f57600080fd5b600061105d84828501610fa9565b91505092915050565b60008060006060848603121561107b57600080fd5b600061108986828701610fa9565b935050602061109a86828701610fa9565b925050604084013567ffffffffffffffff8111156110b757600080fd5b6110c386828701610f7f565b9150509250925092565b60006110d9838361130b565b60208301905092915050565b6110ee8161172c565b82525050565b60006110ff82611637565b611109818561164f565b935061111483611627565b8060005b8381101561114557815161112c88826110cd565b975061113783611642565b925050600181019050611118565b5085935050505092915050565b61115b8161173e565b82525050565b61116a8161174a565b82525050565b61118161117c8261174a565b611826565b82525050565b6111986111938261179e565b611814565b82525050565b6111a7816117c2565b82525050565b60006111ba601883611660565b91506111c5826118f7565b602082019050919050565b60006111dd601f83611660565b91506111e882611920565b602082019050919050565b6000611200601c83611671565b915061120b82611949565b601c82019050919050565b6000611223602783611660565b915061122e82611972565b604082019050919050565b6000611246601983611660565b9150611251826119c1565b602082019050919050565b6000611269601c83611660565b9150611274826119ea565b602082019050919050565b600061128c602283611660565b915061129782611a13565b604082019050919050565b60006112af601983611660565b91506112ba82611a62565b602082019050919050565b60006112d2602283611660565b91506112dd82611a8b565b604082019050919050565b60006112f5602a83611660565b915061130082611ada565b604082019050919050565b61131481611787565b82525050565b61132381611787565b82525050565b61133a61133582611787565b611842565b82525050565b61134981611791565b82525050565b600061135a826111f3565b91506113668284611170565b60208201915081905092915050565b60006113818286611329565b6020820191506113918285611329565b6020820191506113a18284611187565b601482019150819050949350505050565b60006020820190506113c760008301846110e5565b92915050565b600060208201905081810360008301526113e781846110f4565b905092915050565b60006020820190506114046000830184611152565b92915050565b600060808201905061141f6000830187611161565b61142c6020830186611340565b6114396040830185611161565b6114466060830184611161565b95945050505050565b6000602082019050611464600083018461119e565b92915050565b60006020820190508181036000830152611483816111ad565b9050919050565b600060208201905081810360008301526114a3816111d0565b9050919050565b600060208201905081810360008301526114c381611216565b9050919050565b600060208201905081810360008301526114e381611239565b9050919050565b600060208201905081810360008301526115038161125c565b9050919050565b600060208201905081810360008301526115238161127f565b9050919050565b60006020820190508181036000830152611543816112a2565b9050919050565b60006020820190508181036000830152611563816112c5565b9050919050565b60006020820190508181036000830152611583816112e8565b9050919050565b600060208201905061159f600083018461131a565b92915050565b60006115af6115c0565b90506115bb82826117e3565b919050565b6000604051905090565b600067ffffffffffffffff8211156115e5576115e46118aa565b5b602082029050602081019050919050565b600067ffffffffffffffff821115611611576116106118aa565b5b61161a826118d9565b9050602081019050919050565b6000819050602082019050919050565b600081519050919050565b6000602082019050919050565b600082825260208201905092915050565b600082825260208201905092915050565b600081905092915050565b600061168782611787565b915061169283611787565b9250827fffffffffffffffffffffffffffffffffffffffffffffffffffffffffffffffff038211156116c7576116c661184c565b5b828201905092915050565b60006116dd82611787565b91506116e883611787565b9250817fffffffffffffffffffffffffffffffffffffffffffffffffffffffffffffffff04831182151516156117215761172061184c565b5b828202905092915050565b600061173782611767565b9050919050565b60008115159050919050565b6000819050919050565b600081905061176282611b29565b919050565b600073ffffffffffffffffffffffffffffffffffffffff82169050919050565b6000819050919050565b600060ff82169050919050565b60006117a9826117b0565b9050919050565b60006117bb82611767565b9050919050565b60006117cd82611754565b9050919050565b82818337600083830152505050565b6117ec826118d9565b810181811067ffffffffffffffff8211171561180b5761180a6118aa565b5b80604052505050565b600061181f82611830565b9050919050565b6000819050919050565b600061183b826118ea565b9050919050565b6000819050919050565b7f4e487b7100000000000000000000000000000000000000000000000000000000600052601160045260246000fd5b7f4e487b7100000000000000000000000000000000000000000000000000000000600052602160045260246000fd5b7f4e487b7100000000000000000000000000000000000000000000000000000000600052604160045260246000fd5b6000601f19601f8301169050919050565b60008160601b9050919050565b7f45434453413a20696e76616c6964207369676e61747572650000000000000000600082015250565b7f45434453413a20696e76616c6964207369676e6174757265206c656e67746800600082015250565b7f19457468657265756d205369676e6564204d6573736167653a0a333200000000600082015250565b7f506c6561736520706179206163636f7264696e6720746f20746865206974656d60008201527f2070726963652e00000000000000000000000000000000000000000000000000602082015250565b7f4d757374206e65656420796f7572207369676e61747572652e00000000000000600082015250565b7f4f6e6c7920616c6c6f772062757965727320746f206163636573732e00000000600082015250565b7f45434453413a20696e76616c6964207369676e6174757265202773272076616c60008201527f7565000000000000000000000000000000000000000000000000000000000000602082015250565b7f416c6c6f772073656c6c657220616363657373206f6e6c792e00000000000000600082015250565b7f45434453413a20696e76616c6964207369676e6174757265202776272076616c60008201527f7565000000000000000000000000000000000000000000000000000000000000602082015250565b7f54686520737461747573206f6620746865206f72646572206973206e6f74206160008201527f6374696f6e61626c652e00000000000000000000000000000000000000000000602082015250565b60038110611b3a57611b3961187b565b5b50565b611b468161172c565b8114611b5157600080fd5b50565b611b5d81611787565b8114611b6857600080fd5b5056fea26469706673582212208fd7014ac5b7018ec8b6568d2ffd6e04f795e8364c984affc719c96e47c7cb8464736f6c63430008040033",
  "linkReferences": {},
  "deployedLinkReferences": {}
}